{
  "address": "0x93a5391f642b6f769e089566B51AA2f711bd9416",
  "abi": [
    {
      "inputs": [
        {
          "internalType": "address",
          "name": "_etiToken",
          "type": "address"
        },
        {
          "internalType": "address",
          "name": "_oracle",
          "type": "address"
        },
        {
          "internalType": "address",
          "name": "_treasury",
          "type": "address"
        },
        {
          "internalType": "address",
          "name": "_dex",
          "type": "address"
        },
        {
          "internalType": "address",
          "name": "_wavax",
          "type": "address"
        },
        {
          "internalType": "address",
          "name": "initialOwner",
          "type": "address"
        }
      ],
      "stateMutability": "nonpayable",
      "type": "constructor"
    },
    {
      "inputs": [
        {
          "internalType": "address",
          "name": "owner",
          "type": "address"
        }
      ],
      "name": "OwnableInvalidOwner",
      "type": "error"
    },
    {
      "inputs": [
        {
          "internalType": "address",
          "name": "account",
          "type": "address"
        }
      ],
      "name": "OwnableUnauthorizedAccount",
      "type": "error"
    },
    {
      "anonymous": false,
      "inputs": [
        {
          "indexed": true,
          "internalType": "uint256",
          "name": "fundId",
          "type": "uint256"
        },
        {
          "indexed": true,
          "internalType": "address",
          "name": "creator",
          "type": "address"
        },
        {
          "indexed": false,
          "internalType": "string",
          "name": "fundName",
          "type": "string"
        },
        {
          "indexed": false,
          "internalType": "string",
          "name": "fundTicker",
          "type": "string"
        },
        {
          "indexed": false,
          "internalType": "address",
          "name": "fundAddress",
          "type": "address"
        },
        {
          "indexed": false,
          "internalType": "address[]",
          "name": "underlyingTokens",
          "type": "address[]"
        }
      ],
      "name": "FundCreated",
      "type": "event"
    },
    {
      "anonymous": false,
      "inputs": [
        {
          "indexed": true,
          "internalType": "address",
          "name": "previousOwner",
          "type": "address"
        },
        {
          "indexed": true,
          "internalType": "address",
          "name": "newOwner",
          "type": "address"
        }
      ],
      "name": "OwnershipTransferred",
      "type": "event"
    },
    {
      "inputs": [],
      "name": "FUND_CREATION_FEE",
      "outputs": [
        {
          "internalType": "uint256",
          "name": "",
          "type": "uint256"
        }
      ],
      "stateMutability": "view",
      "type": "function"
    },
    {
      "inputs": [
        {
          "internalType": "string",
          "name": "fundName",
          "type": "string"
        },
        {
          "internalType": "string",
          "name": "fundTicker",
          "type": "string"
        },
        {
          "internalType": "address[]",
          "name": "tokens",
          "type": "address[]"
        }
      ],
      "name": "createFund",
      "outputs": [],
      "stateMutability": "nonpayable",
      "type": "function"
    },
    {
      "inputs": [],
      "name": "creationFee",
      "outputs": [
        {
          "internalType": "uint256",
          "name": "",
          "type": "uint256"
        }
      ],
      "stateMutability": "pure",
      "type": "function"
    },
    {
      "inputs": [
        {
          "internalType": "address",
          "name": "",
          "type": "address"
        },
        {
          "internalType": "uint256",
          "name": "",
          "type": "uint256"
        }
      ],
      "name": "creatorFunds",
      "outputs": [
        {
          "internalType": "uint256",
          "name": "",
          "type": "uint256"
        }
      ],
      "stateMutability": "view",
      "type": "function"
    },
    {
      "inputs": [],
      "name": "dex",
      "outputs": [
        {
          "internalType": "address",
          "name": "",
          "type": "address"
        }
      ],
      "stateMutability": "view",
      "type": "function"
    },
    {
      "inputs": [
        {
          "internalType": "uint256",
          "name": "",
          "type": "uint256"
        }
      ],
      "name": "etherIndexFunds",
      "outputs": [
        {
          "internalType": "contract EtherIndexFund",
          "name": "",
          "type": "address"
        }
      ],
      "stateMutability": "view",
      "type": "function"
    },
    {
      "inputs": [],
      "name": "etiToken",
      "outputs": [
        {
          "internalType": "contract ETIToken",
          "name": "",
          "type": "address"
        }
      ],
      "stateMutability": "view",
      "type": "function"
    },
    {
      "inputs": [
        {
          "internalType": "uint256",
          "name": "",
          "type": "uint256"
        }
      ],
      "name": "fundById",
      "outputs": [
        {
          "internalType": "contract EtherIndexFund",
          "name": "",
          "type": "address"
        }
      ],
      "stateMutability": "view",
      "type": "function"
    },
    {
      "inputs": [
        {
          "internalType": "address",
          "name": "creator",
          "type": "address"
        }
      ],
      "name": "getCreatorFunds",
      "outputs": [
        {
          "internalType": "uint256[]",
          "name": "",
          "type": "uint256[]"
        }
      ],
      "stateMutability": "view",
      "type": "function"
    },
    {
      "inputs": [
        {
          "internalType": "uint256",
          "name": "fundId",
          "type": "uint256"
        }
      ],
      "name": "getFund",
      "outputs": [
        {
          "internalType": "address",
          "name": "fundAddress",
          "type": "address"
        },
        {
          "internalType": "string",
          "name": "fundName",
          "type": "string"
        },
        {
          "internalType": "string",
          "name": "fundTicker",
          "type": "string"
        },
        {
          "internalType": "address[]",
          "name": "underlyingTokens",
          "type": "address[]"
        }
      ],
      "stateMutability": "view",
      "type": "function"
    },
    {
      "inputs": [
        {
          "internalType": "uint256",
          "name": "startIndex",
          "type": "uint256"
        },
        {
          "internalType": "uint256",
          "name": "endIndex",
          "type": "uint256"
        }
      ],
      "name": "getFunds",
      "outputs": [
        {
          "internalType": "address[]",
          "name": "",
          "type": "address[]"
        }
      ],
      "stateMutability": "view",
      "type": "function"
    },
    {
      "inputs": [],
      "name": "getTotalFunds",
      "outputs": [
        {
          "internalType": "uint256",
          "name": "",
          "type": "uint256"
        }
      ],
      "stateMutability": "view",
      "type": "function"
    },
    {
      "inputs": [],
      "name": "oracle",
      "outputs": [
        {
          "internalType": "address",
          "name": "",
          "type": "address"
        }
      ],
      "stateMutability": "view",
      "type": "function"
    },
    {
      "inputs": [],
      "name": "owner",
      "outputs": [
        {
          "internalType": "address",
          "name": "",
          "type": "address"
        }
      ],
      "stateMutability": "view",
      "type": "function"
    },
    {
      "inputs": [],
      "name": "renounceOwnership",
      "outputs": [],
      "stateMutability": "nonpayable",
      "type": "function"
    },
    {
      "inputs": [
        {
          "internalType": "address",
          "name": "newOwner",
          "type": "address"
        }
      ],
      "name": "transferOwnership",
      "outputs": [],
      "stateMutability": "nonpayable",
      "type": "function"
    },
    {
      "inputs": [],
      "name": "treasury",
      "outputs": [
        {
          "internalType": "address",
          "name": "",
          "type": "address"
        }
      ],
      "stateMutability": "view",
      "type": "function"
    },
    {
      "inputs": [
        {
          "internalType": "address",
          "name": "newDex",
          "type": "address"
        }
      ],
      "name": "updateDex",
      "outputs": [],
      "stateMutability": "nonpayable",
      "type": "function"
    },
    {
      "inputs": [
        {
          "internalType": "address",
          "name": "newEtiToken",
          "type": "address"
        }
      ],
      "name": "updateEtiToken",
      "outputs": [],
      "stateMutability": "nonpayable",
      "type": "function"
    },
    {
      "inputs": [
        {
          "internalType": "address",
          "name": "newOracle",
          "type": "address"
        }
      ],
      "name": "updateOracle",
      "outputs": [],
      "stateMutability": "nonpayable",
      "type": "function"
    },
    {
      "inputs": [
        {
          "internalType": "address",
          "name": "newTreasury",
          "type": "address"
        }
      ],
      "name": "updateTreasury",
      "outputs": [],
      "stateMutability": "nonpayable",
      "type": "function"
    },
    {
      "inputs": [
        {
          "internalType": "address",
          "name": "newWavax",
          "type": "address"
        }
      ],
      "name": "updateWavax",
      "outputs": [],
      "stateMutability": "nonpayable",
      "type": "function"
    },
    {
      "inputs": [],
      "name": "wavax",
      "outputs": [
        {
          "internalType": "address",
          "name": "",
          "type": "address"
        }
      ],
      "stateMutability": "view",
      "type": "function"
    }
  ],
  "transactionHash": "0x9aca3531de19f28aea5d18c15edcd695446bc4ea665f48108314ac044b86dc83",
  "args": [
    "0x6d8F6Ad0596B7529cb39081F7bA1f76Bdc8fCD99",
    "0x86E36f8f681BaEC46309205CCfC277762dD1698A",
    "0x17149A5373f711f43f4BA9F92f0fc5AA63E78880",
    "0xeE567Fe1712Faf6149d80dA1E6934E354124CfE3",
    "0xfFf9976782d46CC05630D1f6eBAb18b2324d6B14",
    "0x17149A5373f711f43f4BA9F92f0fc5AA63E78880"
  ],
  "numDeployments": 1,
  "solcInputHash": "2d53fd1a37a71122197dbf47fde0a718",
  "bytecode": "0x60806040523480156200001157600080fd5b50604051620052b9380380620052b9833981016040819052620000349162000141565b806001600160a01b0381166200006457604051631e4fbdf760e01b81526000600482015260240160405180910390fd5b6200006f81620000d4565b5050600180546001600160a01b03199081166001600160a01b03978816179091556002805482169587169590951790945560038054851693861693909317909255600480548416918516919091179055600580549092169216919091179055620001c2565b600080546001600160a01b038381166001600160a01b0319831681178455604051919092169283917f8be0079c531659141344cd1fd0a4f28419497f9722a3daafe3b4186f6b6457e09190a35050565b80516001600160a01b03811681146200013c57600080fd5b919050565b60008060008060008060c087890312156200015b57600080fd5b620001668762000124565b9550620001766020880162000124565b9450620001866040880162000124565b9350620001966060880162000124565b9250620001a66080880162000124565b9150620001b660a0880162000124565b90509295509295509295565b6150e780620001d26000396000f3fe60806040523480156200001157600080fd5b5060043610620001695760003560e01c806374b4eafe11620000d3578063d8c149e01162000086578063d8c149e01462000335578063dce0b4e4146200034c578063ddbf75fb146200035c578063df12f8c51462000370578063eb8bbd281462000396578063f2fde38b146200039f57600080fd5b806374b4eafe14620002865780637a862c6a14620002a65780637dc0d1d014620002cc5780637f51bb1f14620002e05780638da5cb5b14620002f7578063aef1be9a146200030957600080fd5b806352c8df64116200012c57806352c8df6414620001fd57806361d027b3146200022657806365c67029146200023a578063692058c21462000251578063715018a6146200026557806373ebd017146200026f57600080fd5b8063117be4c2146200016e57806319dc94a6146200019f5780631bd6090014620001b85780631cb44dfc14620001cf578063302d4c0914620001e6575b600080fd5b60055462000182906001600160a01b031681565b6040516001600160a01b0390911681526020015b60405180910390f35b620001b6620001b0366004620010ec565b620003b6565b005b620001b6620001c9366004620010ec565b62000436565b620001b6620001e0366004620010ec565b620004b0565b62000182620001f736600462001113565b6200052d565b620002146200020e36600462001113565b62000558565b604051620001969493929190620011c7565b60035462000182906001600160a01b031681565b620001b66200024b366004620010ec565b62000720565b60045462000182906001600160a01b031681565b620001b6620007a4565b620001b6620002803660046200131a565b620007bc565b62000297683635c9adc5dea0000081565b60405190815260200162000196565b620002bd620002b736600462001412565b62000cfc565b60405162000196919062001435565b60025462000182906001600160a01b031681565b620001b6620002f1366004620010ec565b62000ee1565b6000546001600160a01b031662000182565b620001826200031a36600462001113565b6007602052600090815260409020546001600160a01b031681565b62000297620003463660046200144a565b62000f65565b683635c9adc5dea0000062000297565b60015462000182906001600160a01b031681565b6200038762000381366004620010ec565b62000f97565b60405162000196919062001479565b60065462000297565b620001b6620003b0366004620010ec565b62001005565b620003c062001049565b6001600160a01b038116620004145760405162461bcd60e51b8152602060048201526015602482015274496e76616c6964205741564158206164647265737360581b60448201526064015b60405180910390fd5b600580546001600160a01b0319166001600160a01b0392909216919091179055565b6200044062001049565b6001600160a01b0381166200048e5760405162461bcd60e51b8152602060048201526013602482015272496e76616c696420444558206164647265737360681b60448201526064016200040b565b600480546001600160a01b0319166001600160a01b0392909216919091179055565b620004ba62001049565b6001600160a01b0381166200050b5760405162461bcd60e51b8152602060048201526016602482015275496e76616c6964206f7261636c65206164647265737360501b60448201526064016200040b565b600280546001600160a01b0319166001600160a01b0392909216919091179055565b600681815481106200053e57600080fd5b6000918252602090912001546001600160a01b0316905081565b600060608060606006805490508510620005ab5760405162461bcd60e51b8152602060048201526013602482015272119d5b9908191bd95cc81b9bdd08195e1a5cdd606a1b60448201526064016200040b565b600060068681548110620005c357620005c3620014bf565b600091825260208220015460408051639ce1413b60e01b815290516001600160a01b0390921697508793508392639ce1413b926004808401938290030181865afa15801562000616573d6000803e3d6000fd5b505050506040513d6000823e601f3d908101601f19168201604052620006409190810190620014d5565b9350806001600160a01b031663c0e547a36040518163ffffffff1660e01b8152600401600060405180830381865afa15801562000681573d6000803e3d6000fd5b505050506040513d6000823e601f3d908101601f19168201604052620006ab9190810190620014d5565b9250806001600160a01b031663d95bd6c96040518163ffffffff1660e01b8152600401600060405180830381865afa158015620006ec573d6000803e3d6000fd5b505050506040513d6000823e601f3d908101601f1916820160405262000716919081019062001555565b9150509193509193565b6200072a62001049565b6001600160a01b038116620007825760405162461bcd60e51b815260206004820152601960248201527f496e76616c69642045544920746f6b656e20616464726573730000000000000060448201526064016200040b565b600180546001600160a01b0319166001600160a01b0392909216919091179055565b620007ae62001049565b620007ba600062001078565b565b60008351116200080f5760405162461bcd60e51b815260206004820152601960248201527f46756e64206e616d652063616e6e6f7420626520656d7074790000000000000060448201526064016200040b565b6000825111620008625760405162461bcd60e51b815260206004820152601b60248201527f46756e64207469636b65722063616e6e6f7420626520656d707479000000000060448201526064016200040b565b6000815111620008b55760405162461bcd60e51b815260206004820152601c60248201527f4d7573742068617665206174206c65617374206f6e6520746f6b656e0000000060448201526064016200040b565b601481511115620009095760405162461bcd60e51b815260206004820152601a60248201527f4d6178696d756d20323020746f6b656e73207065722066756e6400000000000060448201526064016200040b565b60005b815181101562000a705760006001600160a01b0316828281518110620009365762000936620014bf565b60200260200101516001600160a01b0316036200098e5760405162461bcd60e51b8152602060048201526015602482015274496e76616c696420746f6b656e206164647265737360581b60448201526064016200040b565b60006200099d82600162001605565b90505b825181101562000a5a57828181518110620009bf57620009bf620014bf565b60200260200101516001600160a01b0316838381518110620009e557620009e5620014bf565b60200260200101516001600160a01b03160362000a455760405162461bcd60e51b815260206004820152601c60248201527f4475706c696361746520746f6b656e73206e6f7420616c6c6f7765640000000060448201526064016200040b565b8062000a51816200161b565b915050620009a0565b508062000a67816200161b565b9150506200090c565b506001546040516370a0823160e01b8152336004820152683635c9adc5dea00000916001600160a01b0316906370a0823190602401602060405180830381865afa15801562000ac3573d6000803e3d6000fd5b505050506040513d601f19601f8201168201806040525081019062000ae9919062001637565b101562000b505760405162461bcd60e51b815260206004820152602e60248201527f496e73756666696369656e74204554492062616c616e636520666f722066756e60448201526d64206372656174696f6e2066656560901b60648201526084016200040b565b60015460405163079cc67960e41b8152336004820152683635c9adc5dea0000060248201526001600160a01b03909116906379cc679090604401600060405180830381600087803b15801562000ba557600080fd5b505af115801562000bba573d6000803e3d6000fd5b5050600254600354600454600554604051600096508995508894889433946001600160a01b039283169491831693908316929091169062000bfb90620010c8565b62000c0e98979695949392919062001651565b604051809103906000f08015801562000c2b573d6000803e3d6000fd5b506006805460018082019092557ff652222313e28459528d920b65115c16c04f3efc82aaedc97be59f3f377c0d3f810180546001600160a01b0385166001600160a01b03199182168117909255600083815260076020908152604080832080549094169094179092553380825260088352838220805496870181558252919020909301829055519293509182907fed347e9f5d6a8c19fdf08c48cd262b1de465d28cb92c4032b2af21f0d3eef93f9062000ced908990899088908a90620016d0565b60405180910390a35050505050565b600654606090831062000d525760405162461bcd60e51b815260206004820152601960248201527f537461727420696e646578206f7574206f6620626f756e64730000000000000060448201526064016200040b565b60065482111562000da65760405162461bcd60e51b815260206004820152601760248201527f456e6420696e646578206f7574206f6620626f756e647300000000000000000060448201526064016200040b565b8183111562000dee5760405162461bcd60e51b8152602060048201526013602482015272496e76616c696420696e6465782072616e676560681b60448201526064016200040b565b600062000dfc84846200171e565b905060008167ffffffffffffffff81111562000e1c5762000e1c62001222565b60405190808252806020026020018201604052801562000e46578160200160208202803683370190505b50905060005b8281101562000ed657600662000e63828862001605565b8154811062000e765762000e76620014bf565b9060005260206000200160009054906101000a90046001600160a01b031682828151811062000ea95762000ea9620014bf565b6001600160a01b03909216602092830291909101909101528062000ecd816200161b565b91505062000e4c565b509150505b92915050565b62000eeb62001049565b6001600160a01b03811662000f435760405162461bcd60e51b815260206004820152601860248201527f496e76616c69642074726561737572792061646472657373000000000000000060448201526064016200040b565b600380546001600160a01b0319166001600160a01b0392909216919091179055565b6008602052816000526040600020818154811062000f8257600080fd5b90600052602060002001600091509150505481565b6001600160a01b03811660009081526008602090815260409182902080548351818402810184019094528084526060939283018282801562000ff957602002820191906000526020600020905b81548152602001906001019080831162000fe4575b50505050509050919050565b6200100f62001049565b6001600160a01b0381166200103b57604051631e4fbdf760e01b8152600060048201526024016200040b565b620010468162001078565b50565b6000546001600160a01b03163314620007ba5760405163118cdaa760e01b81523360048201526024016200040b565b600080546001600160a01b038381166001600160a01b0319831681178455604051919092169283917f8be0079c531659141344cd1fd0a4f28419497f9722a3daafe3b4186f6b6457e09190a35050565b61397d806200173583390190565b6001600160a01b03811681146200104657600080fd5b600060208284031215620010ff57600080fd5b81356200110c81620010d6565b9392505050565b6000602082840312156200112657600080fd5b5035919050565b60005b838110156200114a57818101518382015260200162001130565b50506000910152565b600081518084526200116d8160208601602086016200112d565b601f01601f19169290920160200192915050565b600081518084526020808501945080840160005b83811015620011bc5781516001600160a01b03168752958201959082019060010162001195565b509495945050505050565b6001600160a01b0385168152608060208201819052600090620011ed9083018662001153565b828103604084015262001201818662001153565b9050828103606084015262001217818562001181565b979650505050505050565b634e487b7160e01b600052604160045260246000fd5b604051601f8201601f1916810167ffffffffffffffff8111828210171562001264576200126462001222565b604052919050565b600067ffffffffffffffff82111562001289576200128962001222565b50601f01601f191660200190565b600082601f830112620012a957600080fd5b8135620012c0620012ba826200126c565b62001238565b818152846020838601011115620012d657600080fd5b816020850160208301376000918101602001919091529392505050565b600067ffffffffffffffff82111562001310576200131062001222565b5060051b60200190565b6000806000606084860312156200133057600080fd5b833567ffffffffffffffff808211156200134957600080fd5b620013578783880162001297565b94506020915081860135818111156200136f57600080fd5b6200137d8882890162001297565b9450506040860135818111156200139357600080fd5b86019050601f81018713620013a757600080fd5b8035620013b8620012ba82620012f3565b81815260059190911b82018301908381019089831115620013d857600080fd5b928401925b8284101562001403578335620013f381620010d6565b82529284019290840190620013dd565b80955050505050509250925092565b600080604083850312156200142657600080fd5b50508035926020909101359150565b6020815260006200110c602083018462001181565b600080604083850312156200145e57600080fd5b82356200146b81620010d6565b946020939093013593505050565b6020808252825182820181905260009190848201906040850190845b81811015620014b35783518352928401929184019160010162001495565b50909695505050505050565b634e487b7160e01b600052603260045260246000fd5b600060208284031215620014e857600080fd5b815167ffffffffffffffff8111156200150057600080fd5b8201601f810184136200151257600080fd5b805162001523620012ba826200126c565b8181528560208385010111156200153957600080fd5b6200154c8260208301602086016200112d565b95945050505050565b600060208083850312156200156957600080fd5b825167ffffffffffffffff8111156200158157600080fd5b8301601f810185136200159357600080fd5b8051620015a4620012ba82620012f3565b81815260059190911b82018301908381019087831115620015c457600080fd5b928401925b8284101562001217578351620015df81620010d6565b82529284019290840190620015c9565b634e487b7160e01b600052601160045260246000fd5b8082018082111562000edb5762000edb620015ef565b600060018201620016305762001630620015ef565b5060010190565b6000602082840312156200164a57600080fd5b5051919050565b6000610100808352620016678184018c62001153565b905082810360208401526200167d818b62001153565b9050828103604084015262001693818a62001181565b6001600160a01b0398891660608501529688166080840152505092851660a084015290841660c083015290921660e0909201919091529392505050565b608081526000620016e5608083018762001153565b8281036020840152620016f9818762001153565b6001600160a01b03861660408501528381036060850152905062001217818562001181565b8181038181111562000edb5762000edb620015ef56fe60806040523480156200001157600080fd5b506040516200397d3803806200397d83398101604081905262000034916200045f565b8488886003620000458382620005dd565b506004620000548282620005dd565b5050506001600160a01b0381166200008757604051631e4fbdf760e01b8152600060048201526024015b60405180910390fd5b620000928162000208565b506006620000a18982620005dd565b506007620000b08882620005dd565b508551620000c69060089060208901906200025a565b50600980546001600160a01b03199081166001600160a01b0388811691909117909255600a80548216878416179055600e80548216868416179055600b80548216858416179055600c8054909116918316919091179055620001288562000208565b60008651116200017b5760405162461bcd60e51b815260206004820152601460248201527f4e6f20756e6465726c79696e6720746f6b656e7300000000000000000000000060448201526064016200007e565b6000865160646200018d9190620006a9565b905060005b8751811015620001f85781600d60008a8481518110620001b657620001b6620006cc565b60200260200101516001600160a01b03166001600160a01b03168152602001908152602001600020819055508080620001ef90620006e2565b91505062000192565b505050505050505050506200070a565b600580546001600160a01b038381166001600160a01b0319831681179093556040519116919082907f8be0079c531659141344cd1fd0a4f28419497f9722a3daafe3b4186f6b6457e090600090a35050565b828054828255906000526020600020908101928215620002b2579160200282015b82811115620002b257825182546001600160a01b0319166001600160a01b039091161782556020909201916001909101906200027b565b50620002c0929150620002c4565b5090565b5b80821115620002c05760008155600101620002c5565b634e487b7160e01b600052604160045260246000fd5b604051601f8201601f191681016001600160401b03811182821017156200031c576200031c620002db565b604052919050565b600082601f8301126200033657600080fd5b81516001600160401b03811115620003525762000352620002db565b602062000368601f8301601f19168201620002f1565b82815285828487010111156200037d57600080fd5b60005b838110156200039d57858101830151828201840152820162000380565b506000928101909101919091529392505050565b80516001600160a01b0381168114620003c957600080fd5b919050565b600082601f830112620003e057600080fd5b815160206001600160401b03821115620003fe57620003fe620002db565b8160051b6200040f828201620002f1565b92835284810182019282810190878511156200042a57600080fd5b83870192505b8483101562000454576200044483620003b1565b8252918301919083019062000430565b979650505050505050565b600080600080600080600080610100898b0312156200047d57600080fd5b88516001600160401b03808211156200049557600080fd5b620004a38c838d0162000324565b995060208b0151915080821115620004ba57600080fd5b620004c88c838d0162000324565b985060408b0151915080821115620004df57600080fd5b50620004ee8b828c01620003ce565b965050620004ff60608a01620003b1565b94506200050f60808a01620003b1565b93506200051f60a08a01620003b1565b92506200052f60c08a01620003b1565b91506200053f60e08a01620003b1565b90509295985092959890939650565b600181811c908216806200056357607f821691505b6020821081036200058457634e487b7160e01b600052602260045260246000fd5b50919050565b601f821115620005d857600081815260208120601f850160051c81016020861015620005b35750805b601f850160051c820191505b81811015620005d457828155600101620005bf565b5050505b505050565b81516001600160401b03811115620005f957620005f9620002db565b62000611816200060a84546200054e565b846200058a565b602080601f831160018114620006495760008415620006305750858301515b600019600386901b1c1916600185901b178555620005d4565b600085815260208120601f198616915b828110156200067a5788860151825594840194600190910190840162000659565b5085821015620006995787850151600019600388901b60f8161c191681555b5050505050600190811b01905550565b600082620006c757634e487b7160e01b600052601260045260246000fd5b500490565b634e487b7160e01b600052603260045260246000fd5b6000600182016200070357634e487b7160e01b600052601160045260246000fd5b5060010190565b613263806200071a6000396000f3fe6080604052600436106102295760003560e01c80637f51bb1f11610123578063a6f2ae3a116100ab578063da23eb631161006f578063da23eb6314610603578063dd62ed3e14610618578063e4849b321461065e578063f2fde38b1461067e578063fb5825ba1461069e57600080fd5b8063a6f2ae3a1461058e578063a9059cbb14610596578063c0e547a3146105b6578063cfa498a3146105cb578063d95bd6c9146105e157600080fd5b806395d89b41116100f257806395d89b411461051a5780639ce1413b1461052f578063a3bf224b14610544578063a525ad3c14610564578063a5c6e8ed1461057957600080fd5b80637f51bb1f146104c7578063803e5f31146104e757806383d5e726146104e75780638da5cb5b146104fc57600080fd5b8063313ce567116101b1578063692058c211610175578063692058c21461042757806370a0823114610447578063715018a61461047d5780637d7c2a1c146104925780637dc0d1d0146104a757600080fd5b8063313ce5671461038b5780633aecd0e3146103a75780633fc8cef3146103c757806356581a0c146103e757806361d027b31461040757600080fd5b806318160ddd116101f857806318160ddd146102ff5780631bd60900146103145780631cb44dfc1461033657806323b872dd146103565780632a033d2a1461037657600080fd5b806302d05d3f1461023557806306fdde0314610272578063095ea7b3146102945780631001553a146102c457600080fd5b3661023057005b600080fd5b34801561024157600080fd5b50600954610255906001600160a01b031681565b6040516001600160a01b0390911681526020015b60405180910390f35b34801561027e57600080fd5b506102876106be565b6040516102699190612c0c565b3480156102a057600080fd5b506102b46102af366004612c76565b610750565b6040519015158152602001610269565b3480156102d057600080fd5b506102f16102df366004612ca0565b600d6020526000908152604090205481565b604051908152602001610269565b34801561030b57600080fd5b506002546102f1565b34801561032057600080fd5b5061033461032f366004612ca0565b61076a565b005b34801561034257600080fd5b50610334610351366004612ca0565b6107e5565b34801561036257600080fd5b506102b4610371366004612cc2565b61085e565b34801561038257600080fd5b506102f1610882565b34801561039757600080fd5b5060405160128152602001610269565b3480156103b357600080fd5b506102f16103c2366004612ca0565b610aac565b3480156103d357600080fd5b50600c54610255906001600160a01b031681565b3480156103f357600080fd5b50610334610402366004612dd4565b610b17565b34801561041357600080fd5b50600e54610255906001600160a01b031681565b34801561043357600080fd5b50600b54610255906001600160a01b031681565b34801561045357600080fd5b506102f1610462366004612ca0565b6001600160a01b031660009081526020819052604090205490565b34801561048957600080fd5b50610334610de5565b34801561049e57600080fd5b50610334610df9565b3480156104b357600080fd5b50600a54610255906001600160a01b031681565b3480156104d357600080fd5b506103346104e2366004612ca0565b610e55565b3480156104f357600080fd5b506102f1601981565b34801561050857600080fd5b506005546001600160a01b0316610255565b34801561052657600080fd5b50610287610ed5565b34801561053b57600080fd5b50610287610ee4565b34801561055057600080fd5b5061025561055f366004612e94565b610f72565b34801561057057600080fd5b506102f1606481565b34801561058557600080fd5b506102f160c881565b610334610f9c565b3480156105a257600080fd5b506102b46105b1366004612c76565b611192565b3480156105c257600080fd5b506102876111a0565b3480156105d757600080fd5b506102f161271081565b3480156105ed57600080fd5b506105f66111ad565b6040516102699190612ef1565b34801561060f57600080fd5b506102f1603281565b34801561062457600080fd5b506102f1610633366004612f04565b6001600160a01b03918216600090815260016020908152604080832093909416825291909152205490565b34801561066a57600080fd5b50610334610679366004612e94565b61120e565b34801561068a57600080fd5b50610334610699366004612ca0565b611509565b3480156106aa57600080fd5b506102f16106b9366004612ca0565b611547565b6060600380546106cd90612f37565b80601f01602080910402602001604051908101604052809291908181526020018280546106f990612f37565b80156107465780601f1061071b57610100808354040283529160200191610746565b820191906000526020600020905b81548152906001019060200180831161072957829003601f168201915b5050505050905090565b60003361075e818585611565565b60019150505b92915050565b610772611572565b6001600160a01b0381166107c35760405162461bcd60e51b8152602060048201526013602482015272496e76616c696420444558206164647265737360681b60448201526064015b60405180910390fd5b600b80546001600160a01b0319166001600160a01b0392909216919091179055565b6107ed611572565b6001600160a01b03811661083c5760405162461bcd60e51b8152602060048201526016602482015275496e76616c6964206f7261636c65206164647265737360501b60448201526064016107ba565b600a80546001600160a01b0319166001600160a01b0392909216919091179055565b60003361086c85828561159f565b61087785858561161d565b506001949350505050565b600061088d60025490565b60000361089a5750600090565b6000805b600854811015610aa6576000600882815481106108bd576108bd612f6b565b60009182526020822001546040516370a0823160e01b81523060048201526001600160a01b03909116925082906370a0823190602401602060405180830381865afa158015610910573d6000803e3d6000fd5b505050506040513d601f19601f820116820180604052508101906109349190612f81565b90508015610a9157600a546040516341976e0960e01b81526001600160a01b03848116600483015260009216906341976e0990602401602060405180830381865afa158015610987573d6000803e3d6000fd5b505050506040513d601f19601f820116820180604052508101906109ab9190612f81565b600a546040516341976e0960e01b81526000600482018190529293506001600160a01b03909116906341976e0990602401602060405180830381865afa1580156109f9573d6000803e3d6000fd5b505050506040513d601f19601f82011682018060405250810190610a1d9190612f81565b9050600082118015610a2f5750600081115b15610a815760006305f5e100610a458486612fb0565b610a4f9190612fc7565b9050600082610a62836305f5e100612fb0565b610a6c9190612fc7565b9050610a788189612fe9565b97505050610a8e565b610a8b8387612fe9565b95505b50505b50508080610a9e90612ffc565b91505061089e565b50919050565b6040516370a0823160e01b81523060048201526000906001600160a01b038316906370a0823190602401602060405180830381865afa158015610af3573d6000803e3d6000fd5b505050506040513d601f19601f820116820180604052508101906107649190612f81565b610b1f611572565b8051825114610b695760405162461bcd60e51b8152602060048201526016602482015275082e4e4c2f240d8cadccee8d0e640dad2e6dac2e8c6d60531b60448201526064016107ba565b6000805b8251811015610baf57828181518110610b8857610b88612f6b565b602002602001015182610b9b9190612fe9565b915080610ba781612ffc565b915050610b6d565b5080606414610c005760405162461bcd60e51b815260206004820152601b60248201527f50726f706f7274696f6e73206d7573742073756d20746f20313030000000000060448201526064016107ba565b60005b600854811015610ccd5760005b8451811015610cba57848181518110610c2b57610c2b612f6b565b60200260200101516001600160a01b031660088381548110610c4f57610c4f612f6b565b6000918252602090912001546001600160a01b031603610ca8576000600d600060088581548110610c8257610c82612f6b565b60009182526020808320909101546001600160a01b031683528201929092526040019020555b80610cb281612ffc565b915050610c10565b5080610cc581612ffc565b915050610c03565b5060005b8351811015610dd757600d6000858381518110610cf057610cf0612f6b565b60200260200101516001600160a01b03166001600160a01b0316815260200190815260200160002054600014610d685760405162461bcd60e51b815260206004820152601e60248201527f546f6b656e206e6f7420696e2066756e64206f72206475706c6963617465000060448201526064016107ba565b828181518110610d7a57610d7a612f6b565b6020026020010151600d6000868481518110610d9857610d98612f6b565b60200260200101516001600160a01b03166001600160a01b03168152602001908152602001600020819055508080610dcf90612ffc565b915050610cd1565b50610de0610df9565b505050565b610ded611572565b610df7600061167c565b565b610e01611572565b6000610e0b6116ce565b9050610e16816118a7565b610e1f81611c4e565b6040518181527fc306af072396b02bf3a9782c10065cc7ff4aa842934a43f0b76f997b291237c89060200160405180910390a150565b610e5d611572565b6001600160a01b038116610eb35760405162461bcd60e51b815260206004820152601860248201527f496e76616c69642074726561737572792061646472657373000000000000000060448201526064016107ba565b600e80546001600160a01b0319166001600160a01b0392909216919091179055565b6060600480546106cd90612f37565b60068054610ef190612f37565b80601f0160208091040260200160405190810160405280929190818152602001828054610f1d90612f37565b8015610f6a5780601f10610f3f57610100808354040283529160200191610f6a565b820191906000526020600020905b815481529060010190602001808311610f4d57829003601f168201915b505050505081565b60088181548110610f8257600080fd5b6000918252602090912001546001600160a01b0316905081565b60003411610fdc5760405162461bcd60e51b815260206004820152600d60248201526c09aeae6e840e6cadcc8408aa89609b1b60448201526064016107ba565b6008546110225760405162461bcd60e51b81526020600482015260146024820152734e6f20756e6465726c79696e6720746f6b656e7360601b60448201526064016107ba565b6000612710611032606434612fb0565b61103c9190612fc7565b9050600061104a8234613015565b90506000611057826120e0565b905061106333826121df565b61106c83612215565b600c60009054906101000a90046001600160a01b03166001600160a01b031663d0e30db0836040518263ffffffff1660e01b81526004016000604051808303818588803b1580156110bc57600080fd5b505af11580156110d0573d6000803e3d6000fd5b5050600c546040516370a0823160e01b815230600482015261114a94506001600160a01b0390911692506370a082319150602401602060405180830381865afa158015611121573d6000803e3d6000fd5b505050506040513d601f19601f820116820180604052508101906111459190612f81565b612417565b604080513481526020810183905290810184905233907f0f18542593f463db9b35ce49dfef2fa3e7b5976b7dbfd9a901dd384d2da16da49060600160405180910390a2505050565b60003361075e81858561161d565b60078054610ef190612f37565b6060600880548060200260200160405190810160405280929190818152602001828054801561074657602002820191906000526020600020905b81546001600160a01b031681526001909101906020018083116111e7575050505050905090565b6000811161125e5760405162461bcd60e51b815260206004820152601d60248201527f416d6f756e74206d7573742062652067726561746572207468616e203000000060448201526064016107ba565b336000908152602081905260409020548111156112bd5760405162461bcd60e51b815260206004820152601860248201527f496e73756666696369656e742066756e6420746f6b656e73000000000000000060448201526064016107ba565b60006112c860025490565b116113155760405162461bcd60e51b815260206004820152601d60248201527f4e6f2066756e6420746f6b656e7320696e2063697263756c6174696f6e00000060448201526064016107ba565b600061132060025490565b61133283670de0b6b3a7640000612fb0565b61133c9190612fc7565b905060006113498261269f565b9050600081116113905760405162461bcd60e51b81526020600482015260126024820152712737903b30b63ab2903a37903932ba3ab93760711b60448201526064016107ba565b600c54604051632e1a7d4d60e01b8152600481018390526001600160a01b0390911690632e1a7d4d90602401600060405180830381600087803b1580156113d657600080fd5b505af11580156113ea573d6000803e3d6000fd5b5050505060006127106064836114009190612fb0565b61140a9190612fc7565b905060006114188284613015565b905061142433866129d7565b61142d82612215565b604051600090339083908381818185875af1925050503d806000811461146f576040519150601f19603f3d011682016040523d82523d6000602084013e611474565b606091505b50509050806114be5760405162461bcd60e51b815260206004820152601660248201527508cc2d2d8cac840e8de40e8e4c2dce6cccae4408aa8960531b60448201526064016107ba565b604080518781526020810184905290810184905233907fcb8b579dfe6e9168d68023b09b7de38effbd57bc37422ed8b5718ca997730d589060600160405180910390a2505050505050565b611511611572565b6001600160a01b03811661153b57604051631e4fbdf760e01b8152600060048201526024016107ba565b6115448161167c565b50565b6001600160a01b038116600090815260208190526040812054610764565b610de08383836001612a0d565b6005546001600160a01b03163314610df75760405163118cdaa760e01b81523360048201526024016107ba565b6001600160a01b038381166000908152600160209081526040808320938616835292905220546000198114611617578181101561160857604051637dc7a0d960e11b81526001600160a01b038416600482015260248101829052604481018390526064016107ba565b61161784848484036000612a0d565b50505050565b6001600160a01b03831661164757604051634b637e8f60e11b8152600060048201526024016107ba565b6001600160a01b0382166116715760405163ec442f0560e01b8152600060048201526024016107ba565b610de0838383612ae2565b600580546001600160a01b038381166001600160a01b0319831681179093556040519116919082907f8be0079c531659141344cd1fd0a4f28419497f9722a3daafe3b4186f6b6457e090600090a35050565b60006116d960025490565b6000036116e65750600090565b6000805b600854811015610aa65760006008828154811061170957611709612f6b565b60009182526020822001546040516370a0823160e01b81523060048201526001600160a01b03909116925082906370a0823190602401602060405180830381865afa15801561175c573d6000803e3d6000fd5b505050506040513d601f19601f820116820180604052508101906117809190612f81565b9050801561189257600a546040516341976e0960e01b81526001600160a01b03848116600483015260009216906341976e0990602401602060405180830381865afa1580156117d3573d6000803e3d6000fd5b505050506040513d601f19601f820116820180604052508101906117f79190612f81565b90506000836001600160a01b031663313ce5676040518163ffffffff1660e01b8152600401602060405180830381865afa158015611839573d6000803e3d6000fd5b505050506040513d601f19601f8201168201806040525081019061185d9190613028565b9050600061186c82600a61312f565b6118768486612fb0565b6118809190612fc7565b905061188c8188612fe9565b96505050505b5050808061189f90612ffc565b9150506116ea565b60005b600854811015611c4a576000600882815481106118c9576118c9612f6b565b60009182526020822001546040516370a0823160e01b81523060048201526001600160a01b03909116925082906370a0823190602401602060405180830381865afa15801561191c573d6000803e3d6000fd5b505050506040513d601f19601f820116820180604052508101906119409190612f81565b905080600003611951575050611c38565b600a546040516341976e0960e01b81526001600160a01b03848116600483015260009216906341976e0990602401602060405180830381865afa15801561199c573d6000803e3d6000fd5b505050506040513d601f19601f820116820180604052508101906119c09190612f81565b90506000836001600160a01b031663313ce5676040518163ffffffff1660e01b8152600401602060405180830381865afa158015611a02573d6000803e3d6000fd5b505050506040513d601f19601f82011682018060405250810190611a269190613028565b90506000611a3582600a61312f565b611a3f8486612fb0565b611a499190612fc7565b6001600160a01b0386166000908152600d602052604081205491925090606490611a73908a612fb0565b611a7d9190612fc7565b905080821115611c31576000611a938284613015565b9050600085611aa386600a61312f565b611aad9084612fb0565b611ab79190612fc7565b90508015611c2e576040805160028082526060820183526000926020830190803683370190505090508881600081518110611af457611af4612f6b565b6001600160a01b039283166020918202929092010152600c54825191169082906001908110611b2557611b25612f6b565b6001600160a01b039283166020918202929092010152600b5460405163095ea7b360e01b8152908216600482015260248101849052908a169063095ea7b3906044016020604051808303816000875af1158015611b86573d6000803e3d6000fd5b505050506040513d601f19601f82011682018060405250810190611baa919061313e565b50600b546040516338ed173960e01b81526001600160a01b03909116906338ed173990611be4908590600190869030904290600401613160565b6000604051808303816000875af1158015611c03573d6000803e3d6000fd5b505050506040513d6000823e601f3d908101601f19168201604052611c2b919081019061319c565b50505b50505b5050505050505b80611c4281612ffc565b9150506118aa565b5050565b60005b600854811015611c4a57600060088281548110611c7057611c70612f6b565b60009182526020822001546040516370a0823160e01b81523060048201526001600160a01b03909116925082906370a0823190602401602060405180830381865afa158015611cc3573d6000803e3d6000fd5b505050506040513d601f19601f82011682018060405250810190611ce79190612f81565b600a546040516341976e0960e01b81526001600160a01b038581166004830152929350600092909116906341976e0990602401602060405180830381865afa158015611d37573d6000803e3d6000fd5b505050506040513d601f19601f82011682018060405250810190611d5b9190612f81565b90506000836001600160a01b031663313ce5676040518163ffffffff1660e01b8152600401602060405180830381865afa158015611d9d573d6000803e3d6000fd5b505050506040513d601f19601f82011682018060405250810190611dc19190613028565b90506000611dd082600a61312f565b611dda8486612fb0565b611de49190612fc7565b6001600160a01b0386166000908152600d602052604081205491925090606490611e0e908a612fb0565b611e189190612fc7565b9050818111156120c7576000611e2e8383613015565b600a546040516341976e0960e01b81526000600482018190529293506001600160a01b03909116906341976e0990602401602060405180830381865afa158015611e7c573d6000803e3d6000fd5b505050506040513d601f19601f82011682018060405250810190611ea09190612f81565b9050600081611eb784670de0b6b3a7640000612fb0565b611ec19190612fc7565b9050600081118015611f3e5750600c546040516370a0823160e01b81523060048201526001600160a01b03909116906370a0823190602401602060405180830381865afa158015611f16573d6000803e3d6000fd5b505050506040513d601f19601f82011682018060405250810190611f3a9190612f81565b8111155b156120c3576040805160028082526060820183526000926020830190803683375050600c5482519293506001600160a01b031691839150600090611f8457611f84612f6b565b60200260200101906001600160a01b031690816001600160a01b0316815250508981600181518110611fb857611fb8612f6b565b6001600160a01b039283166020918202929092010152600c54600b5460405163095ea7b360e01b815290831660048201526024810185905291169063095ea7b3906044016020604051808303816000875af115801561201b573d6000803e3d6000fd5b505050506040513d601f19601f8201168201806040525081019061203f919061313e565b50600b546040516338ed173960e01b81526001600160a01b03909116906338ed173990612079908590600190869030904290600401613160565b6000604051808303816000875af1158015612098573d6000803e3d6000fd5b505050506040513d6000823e601f3d908101601f191682016040526120c0919081019061319c565b50505b5050505b50505050505080806120d890612ffc565b915050611c51565b60006120eb60025490565b6000036120f6575090565b600061271061210660c882613015565b6121109085612fb0565b61211a9190612fc7565b600a546040516341976e0960e01b81526000600482018190529293506001600160a01b03909116906341976e0990602401602060405180830381865afa158015612168573d6000803e3d6000fd5b505050506040513d601f19601f8201168201806040525081019061218c9190612f81565b905060006305f5e10061219f8385612fb0565b6121a99190612fc7565b905060006121b56116ce565b9050806121c160025490565b6121cb9084612fb0565b6121d59190612fc7565b9695505050505050565b6001600160a01b0382166122095760405163ec442f0560e01b8152600060048201526024016107ba565b611c4a60008383612ae2565b60006064612224603284612fb0565b61222e9190612fc7565b90506000606461223f601985612fb0565b6122499190612fc7565b90506000606461225a601986612fb0565b6122649190612fc7565b90508215612311576009546040516000916001600160a01b03169085908381818185875af1925050503d80600081146122b9576040519150601f19603f3d011682016040523d82523d6000602084013e6122be565b606091505b505090508061230f5760405162461bcd60e51b815260206004820152601a60248201527f4661696c656420746f2073656e642063726561746f722066656500000000000060448201526064016107ba565b505b600061231d8284612fe9565b11156123d057600e546000906001600160a01b031661233c8385612fe9565b604051600081818185875af1925050503d8060008114612378576040519150601f19603f3d011682016040523d82523d6000602084013e61237d565b606091505b50509050806123ce5760405162461bcd60e51b815260206004820152601b60248201527f4661696c656420746f2073656e6420747265617375727920666565000000000060448201526064016107ba565b505b60408051848152602081018490529081018290527f312c5308f42848705a866c73dec11fd0783c2d64aac6a97e94467062ad3f40589060600160405180910390a150505050565b600081116124675760405162461bcd60e51b815260206004820152601d60248201527f416d6f756e74206d7573742062652067726561746572207468616e203000000060448201526064016107ba565b600b546001600160a01b03166124ad5760405162461bcd60e51b815260206004820152600b60248201526a111156081b9bdd081cd95d60aa1b60448201526064016107ba565b6008546000906124bd9083612fc7565b905060005b600854811015610de0576000600882815481106124e1576124e1612f6b565b6000918252602090912001546001600160a01b03169050821561268b576040805160028082526060820183526000926020830190803683375050600c5482519293506001600160a01b03169183915060009061253f5761253f612f6b565b60200260200101906001600160a01b031690816001600160a01b031681525050818160018151811061257357612573612f6b565b6001600160a01b039283166020918202929092010152600c54600b5460405163095ea7b360e01b815290831660048201526024810187905291169063095ea7b3906044016020604051808303816000875af11580156125d6573d6000803e3d6000fd5b505050506040513d601f19601f820116820180604052508101906125fa919061313e565b50600b546001600160a01b03166338ed1739856001843061261d426104b0612fe9565b6040518663ffffffff1660e01b815260040161263d959493929190613160565b6000604051808303816000875af192505050801561267d57506040513d6000823e601f3d908101601f1916820160405261267a919081019061319c565b60015b61268857505061268d565b50505b505b8061269781612ffc565b9150506124c2565b600b546000906001600160a01b03166126e85760405162461bcd60e51b815260206004820152600b60248201526a111156081b9bdd081cd95d60aa1b60448201526064016107ba565b600082116127475760405162461bcd60e51b815260206004820152602660248201527f53656c6c2070657263656e74616765206d75737420626520677265617465722060448201526507468616e20360d41b60648201526084016107ba565b506000805b600854811015610aa65760006008828154811061276b5761276b612f6b565b60009182526020822001546040516370a0823160e01b81523060048201526001600160a01b03909116925082906370a0823190602401602060405180830381865afa1580156127be573d6000803e3d6000fd5b505050506040513d601f19601f820116820180604052508101906127e29190612f81565b905080156129c2576000670de0b6b3a76400006127ff8784612fb0565b6128099190612fc7565b90508060000361281b575050506129c5565b604080516002808252606082018352600092602083019080368337019050509050838160008151811061285057612850612f6b565b6001600160a01b039283166020918202929092010152600c5482519116908290600190811061288157612881612f6b565b6001600160a01b039283166020918202929092010152600b5460405163095ea7b360e01b81529082166004820152602481018490529085169063095ea7b3906044016020604051808303816000875af11580156128e2573d6000803e3d6000fd5b505050506040513d601f19601f82011682018060405250810190612906919061313e565b50600b546001600160a01b03166338ed17398360018430612929426104b0612fe9565b6040518663ffffffff1660e01b8152600401612949959493929190613160565b6000604051808303816000875af192505050801561298957506040513d6000823e601f3d908101601f19168201604052612986919081019061319c565b60015b61299657505050506129c5565b806001815181106129a9576129a9612f6b565b6020026020010151876129bc9190612fe9565b96505050505b50505b806129cf81612ffc565b91505061274c565b6001600160a01b038216612a0157604051634b637e8f60e11b8152600060048201526024016107ba565b611c4a82600083612ae2565b6001600160a01b038416612a375760405163e602df0560e01b8152600060048201526024016107ba565b6001600160a01b038316612a6157604051634a1406b160e11b8152600060048201526024016107ba565b6001600160a01b038085166000908152600160209081526040808320938716835292905220829055801561161757826001600160a01b0316846001600160a01b03167f8c5be1e5ebec7d5bd14f71427d1e84f3dd0314c0f7b2291e5b200ac8c7c3b92584604051612ad491815260200190565b60405180910390a350505050565b6001600160a01b038316612b0d578060026000828254612b029190612fe9565b90915550612b7f9050565b6001600160a01b03831660009081526020819052604090205481811015612b605760405163391434e360e21b81526001600160a01b038516600482015260248101829052604481018390526064016107ba565b6001600160a01b03841660009081526020819052604090209082900390555b6001600160a01b038216612b9b57600280548290039055612bba565b6001600160a01b03821660009081526020819052604090208054820190555b816001600160a01b0316836001600160a01b03167fddf252ad1be2c89b69c2b068fc378daa952ba7f163c4a11628f55a4df523b3ef83604051612bff91815260200190565b60405180910390a3505050565b600060208083528351808285015260005b81811015612c3957858101830151858201604001528201612c1d565b506000604082860101526040601f19601f8301168501019250505092915050565b80356001600160a01b0381168114612c7157600080fd5b919050565b60008060408385031215612c8957600080fd5b612c9283612c5a565b946020939093013593505050565b600060208284031215612cb257600080fd5b612cbb82612c5a565b9392505050565b600080600060608486031215612cd757600080fd5b612ce084612c5a565b9250612cee60208501612c5a565b9150604084013590509250925092565b634e487b7160e01b600052604160045260246000fd5b604051601f8201601f1916810167ffffffffffffffff81118282101715612d3d57612d3d612cfe565b604052919050565b600067ffffffffffffffff821115612d5f57612d5f612cfe565b5060051b60200190565b600082601f830112612d7a57600080fd5b81356020612d8f612d8a83612d45565b612d14565b82815260059290921b84018101918181019086841115612dae57600080fd5b8286015b84811015612dc95780358352918301918301612db2565b509695505050505050565b60008060408385031215612de757600080fd5b823567ffffffffffffffff80821115612dff57600080fd5b818501915085601f830112612e1357600080fd5b81356020612e23612d8a83612d45565b82815260059290921b84018101918181019089841115612e4257600080fd5b948201945b83861015612e6757612e5886612c5a565b82529482019490820190612e47565b96505086013592505080821115612e7d57600080fd5b50612e8a85828601612d69565b9150509250929050565b600060208284031215612ea657600080fd5b5035919050565b600081518084526020808501945080840160005b83811015612ee65781516001600160a01b031687529582019590820190600101612ec1565b509495945050505050565b602081526000612cbb6020830184612ead565b60008060408385031215612f1757600080fd5b612f2083612c5a565b9150612f2e60208401612c5a565b90509250929050565b600181811c90821680612f4b57607f821691505b602082108103610aa657634e487b7160e01b600052602260045260246000fd5b634e487b7160e01b600052603260045260246000fd5b600060208284031215612f9357600080fd5b5051919050565b634e487b7160e01b600052601160045260246000fd5b808202811582820484141761076457610764612f9a565b600082612fe457634e487b7160e01b600052601260045260246000fd5b500490565b8082018082111561076457610764612f9a565b60006001820161300e5761300e612f9a565b5060010190565b8181038181111561076457610764612f9a565b60006020828403121561303a57600080fd5b815160ff81168114612cbb57600080fd5b600181815b8085111561308657816000190482111561306c5761306c612f9a565b8085161561307957918102915b93841c9390800290613050565b509250929050565b60008261309d57506001610764565b816130aa57506000610764565b81600181146130c057600281146130ca576130e6565b6001915050610764565b60ff8411156130db576130db612f9a565b50506001821b610764565b5060208310610133831016604e8410600b8410161715613109575081810a610764565b613113838361304b565b806000190482111561312757613127612f9a565b029392505050565b6000612cbb60ff84168361308e565b60006020828403121561315057600080fd5b81518015158114612cbb57600080fd5b85815284602082015260a06040820152600061317f60a0830186612ead565b6001600160a01b0394909416606083015250608001529392505050565b600060208083850312156131af57600080fd5b825167ffffffffffffffff8111156131c657600080fd5b8301601f810185136131d757600080fd5b80516131e5612d8a82612d45565b81815260059190911b8201830190838101908783111561320457600080fd5b928401925b8284101561322257835182529284019290840190613209565b97965050505050505056fea2646970667358221220af4a465eb455fafedf5cff1304c18a244af59f4da75f31835b1fcc47910090d664736f6c63430008140033a264697066735822122088ef60e1f4f49ac29a7fc1d9c9fc6504e667ee8409a551f243ccde993b23948664736f6c63430008140033",
  "devdoc": {
    "author": "Ether Index",
    "errors": {
      "OwnableInvalidOwner(address)": [
        {
          "details": "The owner is not a valid owner account. (eg. `address(0)`)"
        }
      ],
      "OwnableUnauthorizedAccount(address)": [
        {
          "details": "The caller account is not authorized to perform an operation."
        }
      ]
    },
    "kind": "dev",
    "methods": {
      "createFund(string,string,address[])": {
        "details": "Create a new fund",
        "params": {
          "fundName": "Name of the fund",
          "fundTicker": "Ticker symbol for the fund",
          "tokens": "Array of underlying token addresses"
        }
      },
      "creationFee()": {
        "details": "Returns the fund creation fee."
      },
      "getCreatorFunds(address)": {
        "details": "Get all funds created by a specific creator",
        "params": {
          "creator": "The creator address"
        },
        "returns": {
          "_0": "Array of fund IDs created by the creator"
        }
      },
      "getFund(uint256)": {
        "details": "Get fund information by ID",
        "params": {
          "fundId": "The fund ID"
        },
        "returns": {
          "fundAddress": "The fund contract address",
          "fundName": "The fund name",
          "fundTicker": "The fund ticker",
          "underlyingTokens": "Array of underlying token addresses"
        }
      },
      "getFunds(uint256,uint256)": {
        "details": "Get all funds (for frontend petination)",
        "params": {
          "endIndex": "Ending index",
          "startIndex": "Starting index"
        },
        "returns": {
          "_0": "Array of fund addresses"
        }
      },
      "getTotalFunds()": {
        "details": "Get total number of funds",
        "returns": {
          "_0": "Total number of funds created"
        }
      },
      "owner()": {
        "details": "Returns the address of the current owner."
      },
      "renounceOwnership()": {
        "details": "Leaves the contract without owner. It will not be possible to call `onlyOwner` functions. Can only be called by the current owner. NOTE: Renouncing ownership will leave the contract without an owner, thereby disabling any functionality that is only available to the owner."
      },
      "transferOwnership(address)": {
        "details": "Transfers ownership of the contract to a new account (`newOwner`). Can only be called by the current owner."
      },
      "updateDex(address)": {
        "details": "Update DEX address (only owner)",
        "params": {
          "newDex": "New DEX address"
        }
      },
      "updateEtiToken(address)": {
        "details": "Update ETI token address (only owner)",
        "params": {
          "newEtiToken": "New ETI token address"
        }
      },
      "updateOracle(address)": {
        "details": "Update oracle address (only owner)",
        "params": {
          "newOracle": "New oracle address"
        }
      },
      "updateTreasury(address)": {
        "details": "Update treasury address (only owner)",
        "params": {
          "newTreasury": "New treasury address"
        }
      },
      "updateWavax(address)": {
        "details": "Update WAVAX address (only owner)",
        "params": {
          "newWavax": "New WAVAX address"
        }
      }
    },
    "version": 1
  },
  "userdoc": {
    "kind": "user",
    "methods": {},
    "notice": "Fund Factory Contract - Creates and manages index funds",
    "version": 1
  },
  "storageLayout": {
    "storage": [
      {
        "astId": 8,
        "contract": "contracts/FundFactory.sol:FundFactory",
        "label": "_owner",
        "offset": 0,
        "slot": "0",
        "type": "t_address"
      },
      {
        "astId": 3531,
        "contract": "contracts/FundFactory.sol:FundFactory",
        "label": "etiToken",
        "offset": 0,
        "slot": "1",
        "type": "t_contract(ETIToken)1876"
      },
      {
        "astId": 3533,
        "contract": "contracts/FundFactory.sol:FundFactory",
        "label": "oracle",
        "offset": 0,
        "slot": "2",
        "type": "t_address"
      },
      {
        "astId": 3535,
        "contract": "contracts/FundFactory.sol:FundFactory",
        "label": "treasury",
        "offset": 0,
        "slot": "3",
        "type": "t_address"
      },
      {
        "astId": 3537,
        "contract": "contracts/FundFactory.sol:FundFactory",
        "label": "dex",
        "offset": 0,
        "slot": "4",
        "type": "t_address"
      },
      {
        "astId": 3539,
        "contract": "contracts/FundFactory.sol:FundFactory",
        "label": "wavax",
        "offset": 0,
        "slot": "5",
        "type": "t_address"
      },
      {
        "astId": 3543,
        "contract": "contracts/FundFactory.sol:FundFactory",
        "label": "etherIndexFunds",
        "offset": 0,
        "slot": "6",
        "type": "t_array(t_contract(EtherIndexFund)3513)dyn_storage"
      },
      {
        "astId": 3548,
        "contract": "contracts/FundFactory.sol:FundFactory",
        "label": "fundById",
        "offset": 0,
        "slot": "7",
        "type": "t_mapping(t_uint256,t_contract(EtherIndexFund)3513)"
      },
      {
        "astId": 3553,
        "contract": "contracts/FundFactory.sol:FundFactory",
        "label": "creatorFunds",
        "offset": 0,
        "slot": "8",
        "type": "t_mapping(t_address,t_array(t_uint256)dyn_storage)"
      }
    ],
    "types": {
      "t_address": {
        "encoding": "inplace",
        "label": "address",
        "numberOfBytes": "20"
      },
      "t_array(t_contract(EtherIndexFund)3513)dyn_storage": {
        "base": "t_contract(EtherIndexFund)3513",
        "encoding": "dynamic_array",
        "label": "contract EtherIndexFund[]",
        "numberOfBytes": "32"
      },
      "t_array(t_uint256)dyn_storage": {
        "base": "t_uint256",
        "encoding": "dynamic_array",
        "label": "uint256[]",
        "numberOfBytes": "32"
      },
      "t_contract(ETIToken)1876": {
        "encoding": "inplace",
        "label": "contract ETIToken",
        "numberOfBytes": "20"
      },
      "t_contract(EtherIndexFund)3513": {
        "encoding": "inplace",
        "label": "contract EtherIndexFund",
        "numberOfBytes": "20"
      },
      "t_mapping(t_address,t_array(t_uint256)dyn_storage)": {
        "encoding": "mapping",
        "key": "t_address",
        "label": "mapping(address => uint256[])",
        "numberOfBytes": "32",
        "value": "t_array(t_uint256)dyn_storage"
      },
      "t_mapping(t_uint256,t_contract(EtherIndexFund)3513)": {
        "encoding": "mapping",
        "key": "t_uint256",
        "label": "mapping(uint256 => contract EtherIndexFund)",
        "numberOfBytes": "32",
        "value": "t_contract(EtherIndexFund)3513"
      },
      "t_uint256": {
        "encoding": "inplace",
        "label": "uint256",
        "numberOfBytes": "32"
      }
    }
  }
}