{
  "address": "0x86E36f8f681BaEC46309205CCfC277762dD1698A",
  "abi": [
    {
      "inputs": [
        {
          "internalType": "address",
          "name": "pythContract",
          "type": "address"
        }
      ],
      "stateMutability": "nonpayable",
      "type": "constructor"
    },
    {
      "inputs": [
        {
          "internalType": "address",
          "name": "token",
          "type": "address"
        }
      ],
      "name": "getPrice",
      "outputs": [
        {
          "internalType": "uint256",
          "name": "price",
          "type": "uint256"
        }
      ],
      "stateMutability": "view",
      "type": "function"
    },
    {
      "inputs": [],
      "name": "owner",
      "outputs": [
        {
          "internalType": "address",
          "name": "",
          "type": "address"
        }
      ],
      "stateMutability": "view",
      "type": "function"
    },
    {
      "inputs": [
        {
          "internalType": "address",
          "name": "",
          "type": "address"
        }
      ],
      "name": "priceIds",
      "outputs": [
        {
          "internalType": "bytes32",
          "name": "",
          "type": "bytes32"
        }
      ],
      "stateMutability": "view",
      "type": "function"
    },
    {
      "inputs": [],
      "name": "pyth",
      "outputs": [
        {
          "internalType": "contract IPyth",
          "name": "",
          "type": "address"
        }
      ],
      "stateMutability": "view",
      "type": "function"
    },
    {
      "inputs": [
        {
          "internalType": "address",
          "name": "token",
          "type": "address"
        },
        {
          "internalType": "bytes32",
          "name": "priceId",
          "type": "bytes32"
        }
      ],
      "name": "setPriceFeed",
      "outputs": [],
      "stateMutability": "nonpayable",
      "type": "function"
    },
    {
      "inputs": [
        {
          "internalType": "bytes[]",
          "name": "priceUpdateData",
          "type": "bytes[]"
        }
      ],
      "name": "updatePriceFeeds",
      "outputs": [],
      "stateMutability": "payable",
      "type": "function"
    }
  ],
  "transactionHash": "0x3780be2caa116e54783310205c4e7bf79b296e3699698cff839f7eaabfb31a84",
  "args": [
    "0xDd24F84d36BF92C65F92307595335bdFab5Bbd21"
  ],
  "numDeployments": 1,
  "solcInputHash": "2d53fd1a37a71122197dbf47fde0a718",
  "bytecode": "0x608060405234801561001057600080fd5b5060405161099738038061099783398101604081905261002f916100bc565b6001600160a01b0381166100895760405162461bcd60e51b815260206004820152601460248201527f496e76616c696420507974682061646472657373000000000000000000000000604482015260640160405180910390fd5b60018054336001600160a01b031991821617909155600280549091166001600160a01b03929092169190911790556100ec565b6000602082840312156100ce57600080fd5b81516001600160a01b03811681146100e557600080fd5b9392505050565b61089c806100fb6000396000f3fe6080604052600436106100555760003560e01c806341976e091461005a5780638da5cb5b1461008d578063adcb085a146100c5578063db7a6828146100e7578063ef9e5e2814610114578063f98d06f014610127575b600080fd5b34801561006657600080fd5b5061007a61007536600461047e565b610147565b6040519081526020015b60405180910390f35b34801561009957600080fd5b506001546100ad906001600160a01b031681565b6040516001600160a01b039091168152602001610084565b3480156100d157600080fd5b506100e56100e03660046104a0565b61027a565b005b3480156100f357600080fd5b5061007a61010236600461047e565b60006020819052908152604090205481565b6100e56101223660046104ca565b6102e0565b34801561013357600080fd5b506002546100ad906001600160a01b031681565b6001600160a01b038116600090815260208190526040812054806101a95760405162461bcd60e51b8152602060048201526014602482015273141c9a58d94819995959081b9bdd08199bdd5b9960621b60448201526064015b60405180910390fd5b6002546040516396834ad360e01b8152600481018390526000916001600160a01b0316906396834ad390602401608060405180830381865afa1580156101f3573d6000803e3d6000fd5b505050506040513d601f19601f820116820180604052508101906102179190610569565b90506000816000015160070b136102605760405162461bcd60e51b815260206004820152600d60248201526c496e76616c696420707269636560981b60448201526064016101a0565b610272816000015182604001516103c0565b949350505050565b6001546001600160a01b031633146102c45760405162461bcd60e51b815260206004820152600d60248201526c2737ba103a34329037bbb732b960991b60448201526064016101a0565b6001600160a01b03909116600090815260208190526040902055565b60025460405163d47eed4560e01b81526000916001600160a01b03169063d47eed45906103139086908690600401610622565b602060405180830381865afa158015610330573d6000803e3d6000fd5b505050506040513d601f19601f8201168201806040525081019061035491906106be565b600254604051631df3cbc560e31b81529192506001600160a01b03169063ef9e5e289083906103899087908790600401610622565b6000604051808303818588803b1580156103a257600080fd5b505af11580156103b6573d6000803e3d6000fd5b5050505050505050565b6000600783900b8181136104065760405162461bcd60e51b815260206004820152600d60248201526c496e76616c696420707269636560981b60448201526064016101a0565b60006104138460086106ed565b905060008160030b1261043e5761042b81600a6107f8565b610435908361080a565b9250505061045c565b61044781610821565b61045290600a6107f8565b6104359083610844565b92915050565b80356001600160a01b038116811461047957600080fd5b919050565b60006020828403121561049057600080fd5b61049982610462565b9392505050565b600080604083850312156104b357600080fd5b6104bc83610462565b946020939093013593505050565b600080602083850312156104dd57600080fd5b823567ffffffffffffffff808211156104f557600080fd5b818501915085601f83011261050957600080fd5b81358181111561051857600080fd5b8660208260051b850101111561052d57600080fd5b60209290920196919550909350505050565b805167ffffffffffffffff8116811461047957600080fd5b8051600381900b811461047957600080fd5b60006080828403121561057b57600080fd5b6040516080810181811067ffffffffffffffff821117156105ac57634e487b7160e01b600052604160045260246000fd5b6040528251600781900b81146105c157600080fd5b81526105cf6020840161053f565b60208201526105e060408401610557565b6040820152606083015160608201528091505092915050565b81835281816020850137506000828201602090810191909152601f909101601f19169091010190565b60208082528181018390526000906040600585901b8401810190840186845b878110156106b157868403603f190183528135368a9003601e1901811261066757600080fd5b8901858101903567ffffffffffffffff81111561068357600080fd5b80360382131561069257600080fd5b61069d8682846105f9565b955050509184019190840190600101610641565b5091979650505050505050565b6000602082840312156106d057600080fd5b5051919050565b634e487b7160e01b600052601160045260246000fd5b600381810b9083900b01637fffffff8113637fffffff198212171561045c5761045c6106d7565b600181815b8085111561074f578160001904821115610735576107356106d7565b8085161561074257918102915b93841c9390800290610719565b509250929050565b6000826107665750600161045c565b816107735750600061045c565b81600181146107895760028114610793576107af565b600191505061045c565b60ff8411156107a4576107a46106d7565b50506001821b61045c565b5060208310610133831016604e8410600b84101617156107d2575081810a61045c565b6107dc8383610714565b80600019048211156107f0576107f06106d7565b029392505050565b600061049963ffffffff841683610757565b808202811582820484141761045c5761045c6106d7565b60008160030b637fffffff19810361083b5761083b6106d7565b60000392915050565b60008261086157634e487b7160e01b600052601260045260246000fd5b50049056fea2646970667358221220ad6b9e01f05fa42174b6cf391b062dc410f3dc0ab9b2b68c383e86e1555adff064736f6c63430008140033",
  "devdoc": {
    "kind": "dev",
    "methods": {
      "getPrice(address)": {
        "details": "Get the current price of a token in USD with 8 decimals",
        "params": {
          "token": "The token address to get price for"
        },
        "returns": {
          "price": "The current price in USD (8 decimals)"
        }
      },
      "setPriceFeed(address,bytes32)": {
        "details": "Associate a token with its Pyth price feed id",
        "params": {
          "priceId": "Pyth price feed id (bytes32)",
          "token": "Token address"
        }
      },
      "updatePriceFeeds(bytes[])": {
        "details": "Pushes fresh prices to Pyth on-chain; caller must provide update data and fee."
      }
    },
    "version": 1
  },
  "userdoc": {
    "kind": "user",
    "methods": {},
    "version": 1
  },
  "storageLayout": {
    "storage": [
      {
        "astId": 1581,
        "contract": "contracts/ChainlinkOracle.sol:PythOracle",
        "label": "priceIds",
        "offset": 0,
        "slot": "0",
        "type": "t_mapping(t_address,t_bytes32)"
      },
      {
        "astId": 1583,
        "contract": "contracts/ChainlinkOracle.sol:PythOracle",
        "label": "owner",
        "offset": 0,
        "slot": "1",
        "type": "t_address"
      },
      {
        "astId": 1586,
        "contract": "contracts/ChainlinkOracle.sol:PythOracle",
        "label": "pyth",
        "offset": 0,
        "slot": "2",
        "type": "t_contract(IPyth)1096"
      }
    ],
    "types": {
      "t_address": {
        "encoding": "inplace",
        "label": "address",
        "numberOfBytes": "20"
      },
      "t_bytes32": {
        "encoding": "inplace",
        "label": "bytes32",
        "numberOfBytes": "32"
      },
      "t_contract(IPyth)1096": {
        "encoding": "inplace",
        "label": "contract IPyth",
        "numberOfBytes": "20"
      },
      "t_mapping(t_address,t_bytes32)": {
        "encoding": "mapping",
        "key": "t_address",
        "label": "mapping(address => bytes32)",
        "numberOfBytes": "32",
        "value": "t_bytes32"
      }
    }
  }
}